{
  "contractName": "Tokenmarket",
  "abi": [
    {
      "inputs": [
        {
          "internalType": "contract Token",
          "name": "_tokens",
          "type": "address"
        }
      ],
      "stateMutability": "nonpayable",
      "type": "constructor"
    },
    {
      "anonymous": false,
      "inputs": [
        {
          "indexed": false,
          "internalType": "uint256",
          "name": "tokenid",
          "type": "uint256"
        },
        {
          "indexed": false,
          "internalType": "uint256",
          "name": "price",
          "type": "uint256"
        },
        {
          "indexed": false,
          "internalType": "address",
          "name": "issuer",
          "type": "address"
        }
      ],
      "name": "listedforsale",
      "type": "event"
    },
    {
      "anonymous": false,
      "inputs": [
        {
          "indexed": false,
          "internalType": "uint256",
          "name": "id",
          "type": "uint256"
        },
        {
          "indexed": false,
          "internalType": "address",
          "name": "buyer",
          "type": "address"
        }
      ],
      "name": "tokensold",
      "type": "event"
    },
    {
      "inputs": [],
      "name": "tokens",
      "outputs": [
        {
          "internalType": "contract Token",
          "name": "",
          "type": "address"
        }
      ],
      "stateMutability": "view",
      "type": "function",
      "constant": true
    },
    {
      "inputs": [
        {
          "internalType": "uint256",
          "name": "price",
          "type": "uint256"
        },
        {
          "internalType": "uint256",
          "name": "tokenid",
          "type": "uint256"
        }
      ],
      "name": "listforsell",
      "outputs": [],
      "stateMutability": "nonpayable",
      "type": "function"
    },
    {
      "inputs": [
        {
          "internalType": "uint256",
          "name": "tokenid",
          "type": "uint256"
        }
      ],
      "name": "buytoken",
      "outputs": [],
      "stateMutability": "payable",
      "type": "function",
      "payable": true
    },
    {
      "inputs": [
        {
          "internalType": "uint256",
          "name": "id",
          "type": "uint256"
        }
      ],
      "name": "tokendetails",
      "outputs": [
        {
          "internalType": "address",
          "name": "_owner",
          "type": "address"
        },
        {
          "internalType": "string",
          "name": "tokenuri",
          "type": "string"
        },
        {
          "internalType": "uint256",
          "name": "price",
          "type": "uint256"
        }
      ],
      "stateMutability": "view",
      "type": "function",
      "constant": true
    },
    {
      "inputs": [
        {
          "internalType": "uint256",
          "name": "id",
          "type": "uint256"
        }
      ],
      "name": "tokenstate",
      "outputs": [
        {
          "internalType": "uint256",
          "name": "forsale",
          "type": "uint256"
        }
      ],
      "stateMutability": "view",
      "type": "function",
      "constant": true
    },
    {
      "inputs": [
        {
          "internalType": "uint256",
          "name": "id",
          "type": "uint256"
        }
      ],
      "name": "tokenprice",
      "outputs": [
        {
          "internalType": "uint256",
          "name": "price",
          "type": "uint256"
        }
      ],
      "stateMutability": "view",
      "type": "function",
      "constant": true
    },
    {
      "inputs": [
        {
          "internalType": "uint256",
          "name": "tokenid",
          "type": "uint256"
        }
      ],
      "name": "cancelsell",
      "outputs": [],
      "stateMutability": "nonpayable",
      "type": "function"
    }
  ],
  "bytecode": "0x60806040523480156200001157600080fd5b50604051620015ed380380620015ed8339818101604052810190620000379190620000fd565b80600260006101000a81548173ffffffffffffffffffffffffffffffffffffffff021916908373ffffffffffffffffffffffffffffffffffffffff160217905550506200012f565b600080fd5b600073ffffffffffffffffffffffffffffffffffffffff82169050919050565b6000620000b18262000084565b9050919050565b6000620000c582620000a4565b9050919050565b620000d781620000b8565b8114620000e357600080fd5b50565b600081519050620000f781620000cc565b92915050565b6000602082840312156200011657620001156200007f565b5b60006200012684828501620000e6565b91505092915050565b6114ae806200013f6000396000f3fe6080604052600436106100705760003560e01c80634dc28c721161004e5780634dc28c72146100f757806362e47869146101345780639d63848a14610173578063dc7cb83e1461019e57610070565b8063122c01c11461007557806319bece1b146100b25780631e19fde3146100ce575b600080fd5b34801561008157600080fd5b5061009c60048036038101906100979190610bc0565b6101c7565b6040516100a99190610bfc565b60405180910390f35b6100cc60048036038101906100c79190610bc0565b6101e7565b005b3480156100da57600080fd5b506100f560048036038101906100f09190610bc0565b610621565b005b34801561010357600080fd5b5061011e60048036038101906101199190610bc0565b6107a2565b60405161012b9190610bfc565b60405180910390f35b34801561014057600080fd5b5061015b60048036038101906101569190610bc0565b6107c2565b60405161016a93929190610cf1565b60405180910390f35b34801561017f57600080fd5b50610188610934565b6040516101959190610d8e565b60405180910390f35b3480156101aa57600080fd5b506101c560048036038101906101c09190610da9565b61095a565b005b600060036000838152602001908152602001600020600101549050919050565b600360008281526020019081526020016000206001015480341015610241576040517f08c379a000000000000000000000000000000000000000000000000000000000815260040161023890610e35565b60405180910390fd5b60036000838152602001908152602001600020600101548034111561031c576000813461026e9190610e84565b905033600160006101000a81548173ffffffffffffffffffffffffffffffffffffffff021916908373ffffffffffffffffffffffffffffffffffffffff160217905550600160009054906101000a900473ffffffffffffffffffffffffffffffffffffffff1673ffffffffffffffffffffffffffffffffffffffff166108fc829081150290604051600060405180830381858888f19350505050158015610319573d6000803e3d6000fd5b50505b6000600360008581526020019081526020016000206001015490506001600360008681526020019081526020016000206000015414610390576040517f08c379a000000000000000000000000000000000000000000000000000000000815260040161038790610f04565b60405180910390fd5b600081116103d3576040517f08c379a00000000000000000000000000000000000000000000000000000000081526004016103ca90610f70565b60405180910390fd5b600260009054906101000a900473ffffffffffffffffffffffffffffffffffffffff1673ffffffffffffffffffffffffffffffffffffffff16636352211e856040518263ffffffff1660e01b815260040161042e9190610bfc565b602060405180830381865afa15801561044b573d6000803e3d6000fd5b505050506040513d601f19601f8201168201806040525081019061046f9190610fbc565b6000806101000a81548173ffffffffffffffffffffffffffffffffffffffff021916908373ffffffffffffffffffffffffffffffffffffffff16021790555060008054906101000a900473ffffffffffffffffffffffffffffffffffffffff1673ffffffffffffffffffffffffffffffffffffffff166108fc829081150290604051600060405180830381858888f19350505050158015610514573d6000803e3d6000fd5b5060006003600086815260200190815260200160002060000181905550600260009054906101000a900473ffffffffffffffffffffffffffffffffffffffff1673ffffffffffffffffffffffffffffffffffffffff166342842e0e60008054906101000a900473ffffffffffffffffffffffffffffffffffffffff1633876040518463ffffffff1660e01b81526004016105b09392919061100a565b600060405180830381600087803b1580156105ca57600080fd5b505af11580156105de573d6000803e3d6000fd5b505050507f7c124f4fb190c49897f7e2042221720b74109cb98617716736b6f73dd8a7c1128433604051610613929190611041565b60405180910390a150505050565b600160036000838152602001908152602001600020600001541461067a576040517f08c379a0000000000000000000000000000000000000000000000000000000008152600401610671906110b6565b60405180910390fd5b600260009054906101000a900473ffffffffffffffffffffffffffffffffffffffff1673ffffffffffffffffffffffffffffffffffffffff16636352211e826040518263ffffffff1660e01b81526004016106d59190610bfc565b602060405180830381865afa1580156106f2573d6000803e3d6000fd5b505050506040513d601f19601f820116820180604052508101906107169190610fbc565b73ffffffffffffffffffffffffffffffffffffffff163373ffffffffffffffffffffffffffffffffffffffff1614610783576040517f08c379a000000000000000000000000000000000000000000000000000000000815260040161077a90611148565b60405180910390fd5b6000600360008381526020019081526020016000206000018190555050565b600060036000838152602001908152602001600020600001549050919050565b60006060600080600260009054906101000a900473ffffffffffffffffffffffffffffffffffffffff1673ffffffffffffffffffffffffffffffffffffffff16636352211e866040518263ffffffff1660e01b81526004016108249190610bfc565b602060405180830381865afa158015610841573d6000803e3d6000fd5b505050506040513d601f19601f820116820180604052508101906108659190610fbc565b90506000600260009054906101000a900473ffffffffffffffffffffffffffffffffffffffff1673ffffffffffffffffffffffffffffffffffffffff1663c87b56dd876040518263ffffffff1660e01b81526004016108c49190610bfc565b600060405180830381865afa1580156108e1573d6000803e3d6000fd5b505050506040513d6000823e3d601f19601f8201168201806040525081019061090a919061128e565b90508181600360008981526020019081526020016000206001015494509450945050509193909250565b600260009054906101000a900473ffffffffffffffffffffffffffffffffffffffff1681565b600082141561099e576040517f08c379a000000000000000000000000000000000000000000000000000000000815260040161099590611323565b60405180910390fd5b60006003600083815260200190815260200160002060000154146109f7576040517f08c379a00000000000000000000000000000000000000000000000000000000081526004016109ee9061138f565b60405180910390fd5b3073ffffffffffffffffffffffffffffffffffffffff16600260009054906101000a900473ffffffffffffffffffffffffffffffffffffffff1673ffffffffffffffffffffffffffffffffffffffff1663081812fc836040518263ffffffff1660e01b8152600401610a699190610bfc565b602060405180830381865afa158015610a86573d6000803e3d6000fd5b505050506040513d601f19601f82011682018060405250810190610aaa9190610fbc565b73ffffffffffffffffffffffffffffffffffffffff1614610b00576040517f08c379a0000000000000000000000000000000000000000000000000000000008152600401610af790611421565b60405180910390fd5b816003600083815260200190815260200160002060010181905550600160036000838152602001908152602001600020600001819055507ff4920e38afe6b2064b2f00406725bc5812bbfe679c960a1f944e4070464ace20818330604051610b6a93929190611441565b60405180910390a15050565b6000604051905090565b600080fd5b600080fd5b6000819050919050565b610b9d81610b8a565b8114610ba857600080fd5b50565b600081359050610bba81610b94565b92915050565b600060208284031215610bd657610bd5610b80565b5b6000610be484828501610bab565b91505092915050565b610bf681610b8a565b82525050565b6000602082019050610c116000830184610bed565b92915050565b600073ffffffffffffffffffffffffffffffffffffffff82169050919050565b6000610c4282610c17565b9050919050565b610c5281610c37565b82525050565b600081519050919050565b600082825260208201905092915050565b60005b83811015610c92578082015181840152602081019050610c77565b83811115610ca1576000848401525b50505050565b6000601f19601f8301169050919050565b6000610cc382610c58565b610ccd8185610c63565b9350610cdd818560208601610c74565b610ce681610ca7565b840191505092915050565b6000606082019050610d066000830186610c49565b8181036020830152610d188185610cb8565b9050610d276040830184610bed565b949350505050565b6000819050919050565b6000610d54610d4f610d4a84610c17565b610d2f565b610c17565b9050919050565b6000610d6682610d39565b9050919050565b6000610d7882610d5b565b9050919050565b610d8881610d6d565b82525050565b6000602082019050610da36000830184610d7f565b92915050565b60008060408385031215610dc057610dbf610b80565b5b6000610dce85828601610bab565b9250506020610ddf85828601610bab565b9150509250929050565b7f4e6f742073756666696369656e74207072696365000000000000000000000000600082015250565b6000610e1f601483610c63565b9150610e2a82610de9565b602082019050919050565b60006020820190508181036000830152610e4e81610e12565b9050919050565b7f4e487b7100000000000000000000000000000000000000000000000000000000600052601160045260246000fd5b6000610e8f82610b8a565b9150610e9a83610b8a565b925082821015610ead57610eac610e55565b5b828203905092915050565b7f546f6b656e206973206e6f7420666f7273616c65000000000000000000000000600082015250565b6000610eee601483610c63565b9150610ef982610eb8565b602082019050919050565b60006020820190508181036000830152610f1d81610ee1565b9050919050565b7f6e6f7420666f722073616c650000000000000000000000000000000000000000600082015250565b6000610f5a600c83610c63565b9150610f6582610f24565b602082019050919050565b60006020820190508181036000830152610f8981610f4d565b9050919050565b610f9981610c37565b8114610fa457600080fd5b50565b600081519050610fb681610f90565b92915050565b600060208284031215610fd257610fd1610b80565b5b6000610fe084828501610fa7565b91505092915050565b6000610ff482610d5b565b9050919050565b61100481610fe9565b82525050565b600060608201905061101f6000830186610ffb565b61102c6020830185610c49565b6110396040830184610bed565b949350505050565b60006040820190506110566000830185610bed565b6110636020830184610c49565b9392505050565b7f546f6b656e2069736e6f7420666f722073616c65000000000000000000000000600082015250565b60006110a0601483610c63565b91506110ab8261106a565b602082019050919050565b600060208201905081810360008301526110cf81611093565b9050919050565b7f4f6e6c792020546f6b656e206f776e65722063616e2063616e63656c2074686560008201527f2073656c6c200000000000000000000000000000000000000000000000000000602082015250565b6000611132602683610c63565b915061113d826110d6565b604082019050919050565b6000602082019050818103600083015261116181611125565b9050919050565b600080fd5b600080fd5b7f4e487b7100000000000000000000000000000000000000000000000000000000600052604160045260246000fd5b6111aa82610ca7565b810181811067ffffffffffffffff821117156111c9576111c8611172565b5b80604052505050565b60006111dc610b76565b90506111e882826111a1565b919050565b600067ffffffffffffffff82111561120857611207611172565b5b61121182610ca7565b9050602081019050919050565b600061123161122c846111ed565b6111d2565b90508281526020810184848401111561124d5761124c61116d565b5b611258848285610c74565b509392505050565b600082601f83011261127557611274611168565b5b815161128584826020860161121e565b91505092915050565b6000602082840312156112a4576112a3610b80565b5b600082015167ffffffffffffffff8111156112c2576112c1610b85565b5b6112ce84828501611260565b91505092915050565b7f53656c6c696e672070726963652063616e6e6f74206265207a65726f00000000600082015250565b600061130d601c83610c63565b9150611318826112d7565b602082019050919050565b6000602082019050818103600083015261133c81611300565b9050919050565b7f546f6b656e20616c726561647920696e2073616c650000000000000000000000600082015250565b6000611379601583610c63565b915061138482611343565b602082019050919050565b600060208201905081810360008301526113a88161136c565b9050919050565b7f436f6e7472616374206973206e6f7420617070726f76656420746f2073656c6c60008201527f2074686520746f6b656e00000000000000000000000000000000000000000000602082015250565b600061140b602a83610c63565b9150611416826113af565b604082019050919050565b6000602082019050818103600083015261143a816113fe565b9050919050565b60006060820190506114566000830186610bed565b6114636020830185610bed565b6114706040830184610c49565b94935050505056fea2646970667358221220c4ee891c9fd7d70882843d2dbed49765838f4ae25b26f1b0f5e2f37a948eba4964736f6c634300080a0033",
  "immutableReferences": {},
  "source": "//SPDX-License-Identifier:MIT\n\npragma solidity ^0.8.4;\n\nimport \"./Token.sol\";\n\n\ncontract Tokenmarket{\n    \n    address  payable seller;\n    address  payable buyer;\n    Token public tokens;\n    \n    // enum  states {\n    //     initial,\n    //     sale\n    // }\n\n     struct token{\n        uint256 forsale;\n        uint256 sellingprice;\n    }\n    // mapping(uint256 => states) public forsale;//maps the tokenid with it's state\n    // mapping(uint256 =>bool) forsale;\n    // mapping(uint256 => uint256) sellingprice; // maps the tokenid with it's selling price as added by the owner\n    \n    mapping(uint256=>token) collectibes;\n\n    constructor ( Token _tokens)  {\n         tokens = _tokens;\n    }\n     event listedforsale(uint256 tokenid, uint256 price , address issuer);\n     event tokensold(uint256 id , address buyer );\n\n     modifier paidenough(uint256 price){\n        require(msg.value >= price,\"Not sufficient price\");\n        \n        _;\n    }\n    modifier refundexcess(uint256 price)   {\n        if (msg.value > price)\n        {\n            uint256 return_value;\n            return_value = msg.value -price;\n            buyer = payable(msg.sender);\n            buyer.transfer(return_value);\n        }\n        _;\n    }\n\n     //to list the collectibles for sale by the owner ,contract(approved to sale token on behalf of owner)\n    function listforsell(uint256 price,uint256 tokenid) public{\n        require(price != 0,\"Selling price cannot be zero\");\n        require(collectibes[tokenid].forsale == 0 ,\"Token already in sale\");\n\n        // require(forsale[tokenid] != states.sale,\"Token already in sale\");\n        require (tokens.getApproved(tokenid) == address(this),\"Contract is not approved to sell the token\");\n        // sellingprice[tokenid] = price;\n        // forsale[tokenid] = states.sale;\n        collectibes[tokenid].sellingprice = price;\n        collectibes[tokenid].forsale =1;\n        emit listedforsale(tokenid, price ,address(this));\n\n    }\n    //buy the collectibles paying sufficient price as indicated\n    function buytoken(uint256 tokenid) public  payable  paidenough (collectibes[tokenid].sellingprice) refundexcess(collectibes[tokenid].sellingprice){\n        \n        // uint256 price = sellingprice[tokenid];\n         uint256 price = collectibes[tokenid].sellingprice;\n\n        // require(forsale[tokenid] == states.sale,\"Token is not forsale\");\n        require(collectibes[tokenid].forsale == 1,\"Token is not forsale\");\n        require(price > 0, \"not for sale\");\n        \n        seller = payable(tokens.ownerOf(tokenid));\n        seller.transfer(price);\n        collectibes[tokenid].forsale = 0;\n\n       \n        tokens.safeTransferFrom(seller,msg.sender,tokenid);\n      emit   tokensold(tokenid, msg.sender);\n       \n    }\n    \n    //dispaly the details of the collectibles\n    function tokendetails(uint256 id) public  view returns( address _owner, string  memory tokenuri,uint256 price){\n        address owner = tokens.ownerOf(id);\n        string memory uri = tokens.tokenURI(id);\n        return(owner,uri,\n        // collectibes[id].forsale,\n        collectibes[id].sellingprice\n        // forsale[id],\n        // sellingprice[id]\n        ); \n    }\n\n    //display the token state\n    function tokenstate(uint256 id) public view returns (uint256 forsale){\n        return collectibes[id].forsale; \n\n    }\n    //display tokenprice \n    function tokenprice(uint256 id) public view returns(uint256 price){\n        return collectibes[id].sellingprice;\n    }\n    \n    //remove the token form the sale list\n    function cancelsell(uint256 tokenid) public {\n        // require(forsale[tokenid] == states.sale,\"Token isnot for sale\");\n        require(collectibes[tokenid].forsale == 1,\"Token isnot for sale\");\n\n        require(msg.sender ==tokens.ownerOf(tokenid),\"Only  Token owner can cancel the sell \");\n        // forsale[tokenid] = states.initial;\n     collectibes[tokenid].forsale = 0;\n\n\n    }\n}",
  "sourcePath": "/home/khushi/nft-et/contracts/Market.sol",
  "compiler": {
    "name": "solc",
    "version": "0.8.10+commit.fc410830.Emscripten.clang"
  },
  "schemaVersion": "3.4.3",
  "updatedAt": "2021-11-19T14:09:43.907Z",
  "networkType": "ethereum",
  "devdoc": {
    "kind": "dev",
    "methods": {},
    "version": 1
  },
  "userdoc": {
    "kind": "user",
    "methods": {},
    "version": 1
  }
}