{
  "contractName": "Token",
  "abi": [
    {
      "inputs": [
        {
          "internalType": "string",
          "name": "_name",
          "type": "string"
        },
        {
          "internalType": "string",
          "name": "_symbol",
          "type": "string"
        }
      ],
      "stateMutability": "nonpayable",
      "type": "constructor"
    },
    {
      "anonymous": false,
      "inputs": [
        {
          "indexed": true,
          "internalType": "address",
          "name": "owner",
          "type": "address"
        },
        {
          "indexed": true,
          "internalType": "address",
          "name": "approved",
          "type": "address"
        },
        {
          "indexed": true,
          "internalType": "uint256",
          "name": "tokenId",
          "type": "uint256"
        }
      ],
      "name": "Approval",
      "type": "event"
    },
    {
      "anonymous": false,
      "inputs": [
        {
          "indexed": true,
          "internalType": "address",
          "name": "owner",
          "type": "address"
        },
        {
          "indexed": true,
          "internalType": "address",
          "name": "operator",
          "type": "address"
        },
        {
          "indexed": false,
          "internalType": "bool",
          "name": "approved",
          "type": "bool"
        }
      ],
      "name": "ApprovalForAll",
      "type": "event"
    },
    {
      "anonymous": false,
      "inputs": [
        {
          "indexed": false,
          "internalType": "address",
          "name": "owner",
          "type": "address"
        },
        {
          "indexed": false,
          "internalType": "uint256",
          "name": "id",
          "type": "uint256"
        }
      ],
      "name": "NFTminted",
      "type": "event"
    },
    {
      "anonymous": false,
      "inputs": [
        {
          "indexed": true,
          "internalType": "address",
          "name": "from",
          "type": "address"
        },
        {
          "indexed": true,
          "internalType": "address",
          "name": "to",
          "type": "address"
        },
        {
          "indexed": true,
          "internalType": "uint256",
          "name": "tokenId",
          "type": "uint256"
        }
      ],
      "name": "Transfer",
      "type": "event"
    },
    {
      "inputs": [
        {
          "internalType": "address",
          "name": "to",
          "type": "address"
        },
        {
          "internalType": "uint256",
          "name": "tokenId",
          "type": "uint256"
        }
      ],
      "name": "approve",
      "outputs": [],
      "stateMutability": "nonpayable",
      "type": "function"
    },
    {
      "inputs": [
        {
          "internalType": "address",
          "name": "owner",
          "type": "address"
        }
      ],
      "name": "balanceOf",
      "outputs": [
        {
          "internalType": "uint256",
          "name": "",
          "type": "uint256"
        }
      ],
      "stateMutability": "view",
      "type": "function",
      "constant": true
    },
    {
      "inputs": [
        {
          "internalType": "uint256",
          "name": "tokenId",
          "type": "uint256"
        }
      ],
      "name": "getApproved",
      "outputs": [
        {
          "internalType": "address",
          "name": "",
          "type": "address"
        }
      ],
      "stateMutability": "view",
      "type": "function",
      "constant": true
    },
    {
      "inputs": [
        {
          "internalType": "address",
          "name": "owner",
          "type": "address"
        },
        {
          "internalType": "address",
          "name": "operator",
          "type": "address"
        }
      ],
      "name": "isApprovedForAll",
      "outputs": [
        {
          "internalType": "bool",
          "name": "",
          "type": "bool"
        }
      ],
      "stateMutability": "view",
      "type": "function",
      "constant": true
    },
    {
      "inputs": [],
      "name": "name",
      "outputs": [
        {
          "internalType": "string",
          "name": "",
          "type": "string"
        }
      ],
      "stateMutability": "view",
      "type": "function",
      "constant": true
    },
    {
      "inputs": [
        {
          "internalType": "uint256",
          "name": "tokenId",
          "type": "uint256"
        }
      ],
      "name": "ownerOf",
      "outputs": [
        {
          "internalType": "address",
          "name": "",
          "type": "address"
        }
      ],
      "stateMutability": "view",
      "type": "function",
      "constant": true
    },
    {
      "inputs": [
        {
          "internalType": "address",
          "name": "from",
          "type": "address"
        },
        {
          "internalType": "address",
          "name": "to",
          "type": "address"
        },
        {
          "internalType": "uint256",
          "name": "tokenId",
          "type": "uint256"
        }
      ],
      "name": "safeTransferFrom",
      "outputs": [],
      "stateMutability": "nonpayable",
      "type": "function"
    },
    {
      "inputs": [
        {
          "internalType": "address",
          "name": "from",
          "type": "address"
        },
        {
          "internalType": "address",
          "name": "to",
          "type": "address"
        },
        {
          "internalType": "uint256",
          "name": "tokenId",
          "type": "uint256"
        },
        {
          "internalType": "bytes",
          "name": "_data",
          "type": "bytes"
        }
      ],
      "name": "safeTransferFrom",
      "outputs": [],
      "stateMutability": "nonpayable",
      "type": "function"
    },
    {
      "inputs": [
        {
          "internalType": "address",
          "name": "operator",
          "type": "address"
        },
        {
          "internalType": "bool",
          "name": "approved",
          "type": "bool"
        }
      ],
      "name": "setApprovalForAll",
      "outputs": [],
      "stateMutability": "nonpayable",
      "type": "function"
    },
    {
      "inputs": [
        {
          "internalType": "bytes4",
          "name": "interfaceId",
          "type": "bytes4"
        }
      ],
      "name": "supportsInterface",
      "outputs": [
        {
          "internalType": "bool",
          "name": "",
          "type": "bool"
        }
      ],
      "stateMutability": "view",
      "type": "function",
      "constant": true
    },
    {
      "inputs": [],
      "name": "symbol",
      "outputs": [
        {
          "internalType": "string",
          "name": "",
          "type": "string"
        }
      ],
      "stateMutability": "view",
      "type": "function",
      "constant": true
    },
    {
      "inputs": [],
      "name": "tokenIds",
      "outputs": [
        {
          "internalType": "uint256",
          "name": "_value",
          "type": "uint256"
        }
      ],
      "stateMutability": "view",
      "type": "function",
      "constant": true
    },
    {
      "inputs": [
        {
          "internalType": "address",
          "name": "from",
          "type": "address"
        },
        {
          "internalType": "address",
          "name": "to",
          "type": "address"
        },
        {
          "internalType": "uint256",
          "name": "tokenId",
          "type": "uint256"
        }
      ],
      "name": "transferFrom",
      "outputs": [],
      "stateMutability": "nonpayable",
      "type": "function"
    },
    {
      "inputs": [
        {
          "internalType": "address",
          "name": "reciever",
          "type": "address"
        },
        {
          "internalType": "string",
          "name": "_tokenURI",
          "type": "string"
        }
      ],
      "name": "mintNft",
      "outputs": [],
      "stateMutability": "nonpayable",
      "type": "function"
    },
    {
      "inputs": [
        {
          "internalType": "string",
          "name": "baseURIs",
          "type": "string"
        }
      ],
      "name": "_setbaseURI",
      "outputs": [],
      "stateMutability": "nonpayable",
      "type": "function"
    },
    {
      "inputs": [
        {
          "internalType": "uint256",
          "name": "id",
          "type": "uint256"
        }
      ],
      "name": "tokenURI",
      "outputs": [
        {
          "internalType": "string",
          "name": "",
          "type": "string"
        }
      ],
      "stateMutability": "view",
      "type": "function",
      "constant": true
    },
    {
      "inputs": [
        {
          "internalType": "address",
          "name": "_owner",
          "type": "address"
        }
      ],
      "name": "tokensofOwner",
      "outputs": [
        {
          "internalType": "uint256[]",
          "name": "",
          "type": "uint256[]"
        }
      ],
      "stateMutability": "view",
      "type": "function",
      "constant": true
    }
  ],
  "bytecode": "0x60806040523480156200001157600080fd5b506040516200310e3803806200310e8339818101604052810190620000379190620002c2565b818181600090805190602001906200005192919062000075565b5080600190805190602001906200006a92919062000075565b5050505050620003ac565b828054620000839062000376565b90600052602060002090601f016020900481019282620000a75760008555620000f3565b82601f10620000c257805160ff1916838001178555620000f3565b82800160010185558215620000f3579182015b82811115620000f2578251825591602001919060010190620000d5565b5b50905062000102919062000106565b5090565b5b808211156200012157600081600090555060010162000107565b5090565b6000604051905090565b600080fd5b600080fd5b600080fd5b600080fd5b6000601f19601f8301169050919050565b7f4e487b7100000000000000000000000000000000000000000000000000000000600052604160045260246000fd5b6200018e8262000143565b810181811067ffffffffffffffff82111715620001b057620001af62000154565b5b80604052505050565b6000620001c562000125565b9050620001d3828262000183565b919050565b600067ffffffffffffffff821115620001f657620001f562000154565b5b620002018262000143565b9050602081019050919050565b60005b838110156200022e57808201518184015260208101905062000211565b838111156200023e576000848401525b50505050565b60006200025b6200025584620001d8565b620001b9565b9050828152602081018484840111156200027a57620002796200013e565b5b620002878482856200020e565b509392505050565b600082601f830112620002a757620002a662000139565b5b8151620002b984826020860162000244565b91505092915050565b60008060408385031215620002dc57620002db6200012f565b5b600083015167ffffffffffffffff811115620002fd57620002fc62000134565b5b6200030b858286016200028f565b925050602083015167ffffffffffffffff8111156200032f576200032e62000134565b5b6200033d858286016200028f565b9150509250929050565b7f4e487b7100000000000000000000000000000000000000000000000000000000600052602260045260246000fd5b600060028204905060018216806200038f57607f821691505b60208210811415620003a657620003a562000347565b5b50919050565b612d5280620003bc6000396000f3fe608060405234801561001057600080fd5b506004361061010b5760003560e01c80634985fb5b116100a257806395d89b411161007157806395d89b41146102c8578063a22cb465146102e6578063b88d4fde14610302578063c87b56dd1461031e578063e985e9c51461034e5761010b565b80634985fb5b1461022e5780636352211e1461024a57806370a082311461027a578063714cff56146102aa5761010b565b806311f87b19116100de57806311f87b19146101aa57806323b872dd146101c657806339e237f0146101e257806342842e0e146102125761010b565b806301ffc9a71461011057806306fdde0314610140578063081812fc1461015e578063095ea7b31461018e575b600080fd5b61012a60048036038101906101259190611a40565b61037e565b6040516101379190611a88565b60405180910390f35b610148610460565b6040516101559190611b3c565b60405180910390f35b61017860048036038101906101739190611b94565b6104f2565b6040516101859190611c02565b60405180910390f35b6101a860048036038101906101a39190611c49565b610577565b005b6101c460048036038101906101bf9190611dbe565b61068f565b005b6101e060048036038101906101db9190611e1a565b6106f9565b005b6101fc60048036038101906101f79190611e6d565b610759565b6040516102099190611f58565b60405180910390f35b61022c60048036038101906102279190611e1a565b61085a565b005b61024860048036038101906102439190611f7a565b61087a565b005b610264600480360381019061025f9190611b94565b610894565b6040516102719190611c02565b60405180910390f35b610294600480360381019061028f9190611e6d565b610946565b6040516102a19190611fd2565b60405180910390f35b6102b26109fe565b6040516102bf9190611fd2565b60405180910390f35b6102d0610a0a565b6040516102dd9190611b3c565b60405180910390f35b61030060048036038101906102fb9190612019565b610a9c565b005b61031c600480360381019061031791906120fa565b610c1d565b005b61033860048036038101906103339190611b94565b610c7f565b6040516103459190611b3c565b60405180910390f35b6103686004803603810190610363919061217d565b610df2565b6040516103759190611a88565b60405180910390f35b60007f80ac58cd000000000000000000000000000000000000000000000000000000007bffffffffffffffffffffffffffffffffffffffffffffffffffffffff1916827bffffffffffffffffffffffffffffffffffffffffffffffffffffffff1916148061044957507f5b5e139f000000000000000000000000000000000000000000000000000000007bffffffffffffffffffffffffffffffffffffffffffffffffffffffff1916827bffffffffffffffffffffffffffffffffffffffffffffffffffffffff1916145b80610459575061045882610e86565b5b9050919050565b60606000805461046f906121ec565b80601f016020809104026020016040519081016040528092919081815260200182805461049b906121ec565b80156104e85780601f106104bd576101008083540402835291602001916104e8565b820191906000526020600020905b8154815290600101906020018083116104cb57829003601f168201915b5050505050905090565b60006104fd82610ef0565b61053c576040517f08c379a000000000000000000000000000000000000000000000000000000000815260040161053390612290565b60405180910390fd5b6004600083815260200190815260200160002060009054906101000a900473ffffffffffffffffffffffffffffffffffffffff169050919050565b600061058282610894565b90508073ffffffffffffffffffffffffffffffffffffffff168373ffffffffffffffffffffffffffffffffffffffff1614156105f3576040517f08c379a00000000000000000000000000000000000000000000000000000000081526004016105ea90612322565b60405180910390fd5b8073ffffffffffffffffffffffffffffffffffffffff16610612610f5c565b73ffffffffffffffffffffffffffffffffffffffff16148061064157506106408161063b610f5c565b610df2565b5b610680576040517f08c379a0000000000000000000000000000000000000000000000000000000008152600401610677906123b4565b60405180910390fd5b61068a8383610f64565b505050565b600061069b600661101d565b90506106a7838261102b565b6106b181836111f9565b6106bb600661126d565b7febddff399c2639d52aac2b426c49acb783ddd9ed4409880c784f3bd7f055859183826040516106ec9291906123d4565b60405180910390a1505050565b61070a610704610f5c565b82611283565b610749576040517f08c379a00000000000000000000000000000000000000000000000000000000081526004016107409061246f565b60405180910390fd5b610754838383611361565b505050565b60606000610767600661101d565b9050600061077484610946565b905060008167ffffffffffffffff81111561079257610791611c93565b5b6040519080825280602002602001820160405280156107c05781602001602082028036833780820191505090505b5090506000805b8481101561084d578673ffffffffffffffffffffffffffffffffffffffff166107ef82610894565b73ffffffffffffffffffffffffffffffffffffffff16141561083a578083838151811061081f5761081e61248f565b5b6020026020010181815250508180610836906124ed565b9250505b8080610845906124ed565b9150506107c7565b5081945050505050919050565b61087583838360405180602001604052806000815250610c1d565b505050565b8060089080519060200190610890929190611931565b5050565b6000806002600084815260200190815260200160002060009054906101000a900473ffffffffffffffffffffffffffffffffffffffff169050600073ffffffffffffffffffffffffffffffffffffffff168173ffffffffffffffffffffffffffffffffffffffff16141561093d576040517f08c379a0000000000000000000000000000000000000000000000000000000008152600401610934906125a8565b60405180910390fd5b80915050919050565b60008073ffffffffffffffffffffffffffffffffffffffff168273ffffffffffffffffffffffffffffffffffffffff1614156109b7576040517f08c379a00000000000000000000000000000000000000000000000000000000081526004016109ae9061263a565b60405180910390fd5b600360008373ffffffffffffffffffffffffffffffffffffffff1673ffffffffffffffffffffffffffffffffffffffff168152602001908152602001600020549050919050565b60068060000154905081565b606060018054610a19906121ec565b80601f0160208091040260200160405190810160405280929190818152602001828054610a45906121ec565b8015610a925780601f10610a6757610100808354040283529160200191610a92565b820191906000526020600020905b815481529060010190602001808311610a7557829003601f168201915b5050505050905090565b610aa4610f5c565b73ffffffffffffffffffffffffffffffffffffffff168273ffffffffffffffffffffffffffffffffffffffff161415610b12576040517f08c379a0000000000000000000000000000000000000000000000000000000008152600401610b09906126a6565b60405180910390fd5b8060056000610b1f610f5c565b73ffffffffffffffffffffffffffffffffffffffff1673ffffffffffffffffffffffffffffffffffffffff16815260200190815260200160002060008473ffffffffffffffffffffffffffffffffffffffff1673ffffffffffffffffffffffffffffffffffffffff16815260200190815260200160002060006101000a81548160ff0219169083151502179055508173ffffffffffffffffffffffffffffffffffffffff16610bcc610f5c565b73ffffffffffffffffffffffffffffffffffffffff167f17307eab39ab6107e8899845ad3d59bd9653f200f220920489ca2b5937696c3183604051610c119190611a88565b60405180910390a35050565b610c2e610c28610f5c565b83611283565b610c6d576040517f08c379a0000000000000000000000000000000000000000000000000000000008152600401610c649061246f565b60405180910390fd5b610c79848484846115bd565b50505050565b6060610c8a82610ef0565b610cc9576040517f08c379a0000000000000000000000000000000000000000000000000000000008152600401610cc090612712565b60405180910390fd5b6000600760008481526020019081526020016000208054610ce9906121ec565b80601f0160208091040260200160405190810160405280929190818152602001828054610d15906121ec565b8015610d625780601f10610d3757610100808354040283529160200191610d62565b820191906000526020600020905b815481529060010190602001808311610d4557829003601f168201915b505050505090506000610d73611619565b9050600081511415610d89578192505050610ded565b600082511115610dbe578082604051602001610da692919061276e565b60405160208183030381529060405292505050610ded565b80610dc885611630565b604051602001610dd992919061276e565b604051602081830303815290604052925050505b919050565b6000600560008473ffffffffffffffffffffffffffffffffffffffff1673ffffffffffffffffffffffffffffffffffffffff16815260200190815260200160002060008373ffffffffffffffffffffffffffffffffffffffff1673ffffffffffffffffffffffffffffffffffffffff16815260200190815260200160002060009054906101000a900460ff16905092915050565b60007f01ffc9a7000000000000000000000000000000000000000000000000000000007bffffffffffffffffffffffffffffffffffffffffffffffffffffffff1916827bffffffffffffffffffffffffffffffffffffffffffffffffffffffff1916149050919050565b60008073ffffffffffffffffffffffffffffffffffffffff166002600084815260200190815260200160002060009054906101000a900473ffffffffffffffffffffffffffffffffffffffff1673ffffffffffffffffffffffffffffffffffffffff1614159050919050565b600033905090565b816004600083815260200190815260200160002060006101000a81548173ffffffffffffffffffffffffffffffffffffffff021916908373ffffffffffffffffffffffffffffffffffffffff160217905550808273ffffffffffffffffffffffffffffffffffffffff16610fd783610894565b73ffffffffffffffffffffffffffffffffffffffff167f8c5be1e5ebec7d5bd14f71427d1e84f3dd0314c0f7b2291e5b200ac8c7c3b92560405160405180910390a45050565b600081600001549050919050565b600073ffffffffffffffffffffffffffffffffffffffff168273ffffffffffffffffffffffffffffffffffffffff16141561109b576040517f08c379a0000000000000000000000000000000000000000000000000000000008152600401611092906127de565b60405180910390fd5b6110a481610ef0565b156110e4576040517f08c379a00000000000000000000000000000000000000000000000000000000081526004016110db9061284a565b60405180910390fd5b6110f060008383611791565b6001600360008473ffffffffffffffffffffffffffffffffffffffff1673ffffffffffffffffffffffffffffffffffffffff1681526020019081526020016000206000828254611140919061286a565b92505081905550816002600083815260200190815260200160002060006101000a81548173ffffffffffffffffffffffffffffffffffffffff021916908373ffffffffffffffffffffffffffffffffffffffff160217905550808273ffffffffffffffffffffffffffffffffffffffff16600073ffffffffffffffffffffffffffffffffffffffff167fddf252ad1be2c89b69c2b068fc378daa952ba7f163c4a11628f55a4df523b3ef60405160405180910390a45050565b61120282610ef0565b611241576040517f08c379a00000000000000000000000000000000000000000000000000000000081526004016112389061290c565b60405180910390fd5b80600760008481526020019081526020016000209080519060200190611268929190611931565b505050565b6001816000016000828254019250508190555050565b600061128e82610ef0565b6112cd576040517f08c379a00000000000000000000000000000000000000000000000000000000081526004016112c49061299e565b60405180910390fd5b60006112d883610894565b90508073ffffffffffffffffffffffffffffffffffffffff168473ffffffffffffffffffffffffffffffffffffffff16148061134757508373ffffffffffffffffffffffffffffffffffffffff1661132f846104f2565b73ffffffffffffffffffffffffffffffffffffffff16145b8061135857506113578185610df2565b5b91505092915050565b8273ffffffffffffffffffffffffffffffffffffffff1661138182610894565b73ffffffffffffffffffffffffffffffffffffffff16146113d7576040517f08c379a00000000000000000000000000000000000000000000000000000000081526004016113ce90612a30565b60405180910390fd5b600073ffffffffffffffffffffffffffffffffffffffff168273ffffffffffffffffffffffffffffffffffffffff161415611447576040517f08c379a000000000000000000000000000000000000000000000000000000000815260040161143e90612ac2565b60405180910390fd5b611452838383611791565b61145d600082610f64565b6001600360008573ffffffffffffffffffffffffffffffffffffffff1673ffffffffffffffffffffffffffffffffffffffff16815260200190815260200160002060008282546114ad9190612ae2565b925050819055506001600360008473ffffffffffffffffffffffffffffffffffffffff1673ffffffffffffffffffffffffffffffffffffffff1681526020019081526020016000206000828254611504919061286a565b92505081905550816002600083815260200190815260200160002060006101000a81548173ffffffffffffffffffffffffffffffffffffffff021916908373ffffffffffffffffffffffffffffffffffffffff160217905550808273ffffffffffffffffffffffffffffffffffffffff168473ffffffffffffffffffffffffffffffffffffffff167fddf252ad1be2c89b69c2b068fc378daa952ba7f163c4a11628f55a4df523b3ef60405160405180910390a4505050565b6115c8848484611361565b6115d484848484611796565b611613576040517f08c379a000000000000000000000000000000000000000000000000000000000815260040161160a90612b88565b60405180910390fd5b50505050565b606060405180602001604052806000815250905090565b60606000821415611678576040518060400160405280600181526020017f3000000000000000000000000000000000000000000000000000000000000000815250905061178c565b600082905060005b600082146116aa578080611693906124ed565b915050600a826116a39190612bd7565b9150611680565b60008167ffffffffffffffff8111156116c6576116c5611c93565b5b6040519080825280601f01601f1916602001820160405280156116f85781602001600182028036833780820191505090505b5090505b60008514611785576001826117119190612ae2565b9150600a856117209190612c08565b603061172c919061286a565b60f81b8183815181106117425761174161248f565b5b60200101907effffffffffffffffffffffffffffffffffffffffffffffffffffffffffffff1916908160001a905350600a8561177e9190612bd7565b94506116fc565b8093505050505b919050565b505050565b60006117b78473ffffffffffffffffffffffffffffffffffffffff1661191e565b15611911578373ffffffffffffffffffffffffffffffffffffffff1663150b7a026117e0610f5c565b8786866040518563ffffffff1660e01b81526004016118029493929190612c8e565b6020604051808303816000875af192505050801561183e57506040513d601f19601f8201168201806040525081019061183b9190612cef565b60015b6118c1573d806000811461186e576040519150601f19603f3d011682016040523d82523d6000602084013e611873565b606091505b506000815114156118b9576040517f08c379a00000000000000000000000000000000000000000000000000000000081526004016118b090612b88565b60405180910390fd5b805181602001fd5b63150b7a0260e01b7bffffffffffffffffffffffffffffffffffffffffffffffffffffffff1916817bffffffffffffffffffffffffffffffffffffffffffffffffffffffff191614915050611916565b600190505b949350505050565b600080823b905060008111915050919050565b82805461193d906121ec565b90600052602060002090601f01602090048101928261195f57600085556119a6565b82601f1061197857805160ff19168380011785556119a6565b828001600101855582156119a6579182015b828111156119a557825182559160200191906001019061198a565b5b5090506119b391906119b7565b5090565b5b808211156119d05760008160009055506001016119b8565b5090565b6000604051905090565b600080fd5b600080fd5b60007fffffffff0000000000000000000000000000000000000000000000000000000082169050919050565b611a1d816119e8565b8114611a2857600080fd5b50565b600081359050611a3a81611a14565b92915050565b600060208284031215611a5657611a556119de565b5b6000611a6484828501611a2b565b91505092915050565b60008115159050919050565b611a8281611a6d565b82525050565b6000602082019050611a9d6000830184611a79565b92915050565b600081519050919050565b600082825260208201905092915050565b60005b83811015611add578082015181840152602081019050611ac2565b83811115611aec576000848401525b50505050565b6000601f19601f8301169050919050565b6000611b0e82611aa3565b611b188185611aae565b9350611b28818560208601611abf565b611b3181611af2565b840191505092915050565b60006020820190508181036000830152611b568184611b03565b905092915050565b6000819050919050565b611b7181611b5e565b8114611b7c57600080fd5b50565b600081359050611b8e81611b68565b92915050565b600060208284031215611baa57611ba96119de565b5b6000611bb884828501611b7f565b91505092915050565b600073ffffffffffffffffffffffffffffffffffffffff82169050919050565b6000611bec82611bc1565b9050919050565b611bfc81611be1565b82525050565b6000602082019050611c176000830184611bf3565b92915050565b611c2681611be1565b8114611c3157600080fd5b50565b600081359050611c4381611c1d565b92915050565b60008060408385031215611c6057611c5f6119de565b5b6000611c6e85828601611c34565b9250506020611c7f85828601611b7f565b9150509250929050565b600080fd5b600080fd5b7f4e487b7100000000000000000000000000000000000000000000000000000000600052604160045260246000fd5b611ccb82611af2565b810181811067ffffffffffffffff82111715611cea57611ce9611c93565b5b80604052505050565b6000611cfd6119d4565b9050611d098282611cc2565b919050565b600067ffffffffffffffff821115611d2957611d28611c93565b5b611d3282611af2565b9050602081019050919050565b82818337600083830152505050565b6000611d61611d5c84611d0e565b611cf3565b905082815260208101848484011115611d7d57611d7c611c8e565b5b611d88848285611d3f565b509392505050565b600082601f830112611da557611da4611c89565b5b8135611db5848260208601611d4e565b91505092915050565b60008060408385031215611dd557611dd46119de565b5b6000611de385828601611c34565b925050602083013567ffffffffffffffff811115611e0457611e036119e3565b5b611e1085828601611d90565b9150509250929050565b600080600060608486031215611e3357611e326119de565b5b6000611e4186828701611c34565b9350506020611e5286828701611c34565b9250506040611e6386828701611b7f565b9150509250925092565b600060208284031215611e8357611e826119de565b5b6000611e9184828501611c34565b91505092915050565b600081519050919050565b600082825260208201905092915050565b6000819050602082019050919050565b611ecf81611b5e565b82525050565b6000611ee18383611ec6565b60208301905092915050565b6000602082019050919050565b6000611f0582611e9a565b611f0f8185611ea5565b9350611f1a83611eb6565b8060005b83811015611f4b578151611f328882611ed5565b9750611f3d83611eed565b925050600181019050611f1e565b5085935050505092915050565b60006020820190508181036000830152611f728184611efa565b905092915050565b600060208284031215611f9057611f8f6119de565b5b600082013567ffffffffffffffff811115611fae57611fad6119e3565b5b611fba84828501611d90565b91505092915050565b611fcc81611b5e565b82525050565b6000602082019050611fe76000830184611fc3565b92915050565b611ff681611a6d565b811461200157600080fd5b50565b60008135905061201381611fed565b92915050565b600080604083850312156120305761202f6119de565b5b600061203e85828601611c34565b925050602061204f85828601612004565b9150509250929050565b600067ffffffffffffffff82111561207457612073611c93565b5b61207d82611af2565b9050602081019050919050565b600061209d61209884612059565b611cf3565b9050828152602081018484840111156120b9576120b8611c8e565b5b6120c4848285611d3f565b509392505050565b600082601f8301126120e1576120e0611c89565b5b81356120f184826020860161208a565b91505092915050565b60008060008060808587031215612114576121136119de565b5b600061212287828801611c34565b945050602061213387828801611c34565b935050604061214487828801611b7f565b925050606085013567ffffffffffffffff811115612165576121646119e3565b5b612171878288016120cc565b91505092959194509250565b60008060408385031215612194576121936119de565b5b60006121a285828601611c34565b92505060206121b385828601611c34565b9150509250929050565b7f4e487b7100000000000000000000000000000000000000000000000000000000600052602260045260246000fd5b6000600282049050600182168061220457607f821691505b60208210811415612218576122176121bd565b5b50919050565b7f4552433732313a20617070726f76656420717565727920666f72206e6f6e657860008201527f697374656e7420746f6b656e0000000000000000000000000000000000000000602082015250565b600061227a602c83611aae565b91506122858261221e565b604082019050919050565b600060208201905081810360008301526122a98161226d565b9050919050565b7f4552433732313a20617070726f76616c20746f2063757272656e74206f776e6560008201527f7200000000000000000000000000000000000000000000000000000000000000602082015250565b600061230c602183611aae565b9150612317826122b0565b604082019050919050565b6000602082019050818103600083015261233b816122ff565b9050919050565b7f4552433732313a20617070726f76652063616c6c6572206973206e6f74206f7760008201527f6e6572206e6f7220617070726f76656420666f7220616c6c0000000000000000602082015250565b600061239e603883611aae565b91506123a982612342565b604082019050919050565b600060208201905081810360008301526123cd81612391565b9050919050565b60006040820190506123e96000830185611bf3565b6123f66020830184611fc3565b9392505050565b7f4552433732313a207472616e736665722063616c6c6572206973206e6f74206f60008201527f776e6572206e6f7220617070726f766564000000000000000000000000000000602082015250565b6000612459603183611aae565b9150612464826123fd565b604082019050919050565b600060208201905081810360008301526124888161244c565b9050919050565b7f4e487b7100000000000000000000000000000000000000000000000000000000600052603260045260246000fd5b7f4e487b7100000000000000000000000000000000000000000000000000000000600052601160045260246000fd5b60006124f882611b5e565b91507fffffffffffffffffffffffffffffffffffffffffffffffffffffffffffffffff82141561252b5761252a6124be565b5b600182019050919050565b7f4552433732313a206f776e657220717565727920666f72206e6f6e657869737460008201527f656e7420746f6b656e0000000000000000000000000000000000000000000000602082015250565b6000612592602983611aae565b915061259d82612536565b604082019050919050565b600060208201905081810360008301526125c181612585565b9050919050565b7f4552433732313a2062616c616e636520717565727920666f7220746865207a6560008201527f726f206164647265737300000000000000000000000000000000000000000000602082015250565b6000612624602a83611aae565b915061262f826125c8565b604082019050919050565b6000602082019050818103600083015261265381612617565b9050919050565b7f4552433732313a20617070726f766520746f2063616c6c657200000000000000600082015250565b6000612690601983611aae565b915061269b8261265a565b602082019050919050565b600060208201905081810360008301526126bf81612683565b9050919050565b7f55524920717565727920666f72206e6f6e6578697374656e7420746f6b656e00600082015250565b60006126fc601f83611aae565b9150612707826126c6565b602082019050919050565b6000602082019050818103600083015261272b816126ef565b9050919050565b600081905092915050565b600061274882611aa3565b6127528185612732565b9350612762818560208601611abf565b80840191505092915050565b600061277a828561273d565b9150612786828461273d565b91508190509392505050565b7f4552433732313a206d696e7420746f20746865207a65726f2061646472657373600082015250565b60006127c8602083611aae565b91506127d382612792565b602082019050919050565b600060208201905081810360008301526127f7816127bb565b9050919050565b7f4552433732313a20746f6b656e20616c7265616479206d696e74656400000000600082015250565b6000612834601c83611aae565b915061283f826127fe565b602082019050919050565b6000602082019050818103600083015261286381612827565b9050919050565b600061287582611b5e565b915061288083611b5e565b9250827fffffffffffffffffffffffffffffffffffffffffffffffffffffffffffffffff038211156128b5576128b46124be565b5b828201905092915050565b7f555249206f66206e6f6e6578697374656e7420746f6b656e0000000000000000600082015250565b60006128f6601883611aae565b9150612901826128c0565b602082019050919050565b60006020820190508181036000830152612925816128e9565b9050919050565b7f4552433732313a206f70657261746f7220717565727920666f72206e6f6e657860008201527f697374656e7420746f6b656e0000000000000000000000000000000000000000602082015250565b6000612988602c83611aae565b91506129938261292c565b604082019050919050565b600060208201905081810360008301526129b78161297b565b9050919050565b7f4552433732313a207472616e73666572206f6620746f6b656e2074686174206960008201527f73206e6f74206f776e0000000000000000000000000000000000000000000000602082015250565b6000612a1a602983611aae565b9150612a25826129be565b604082019050919050565b60006020820190508181036000830152612a4981612a0d565b9050919050565b7f4552433732313a207472616e7366657220746f20746865207a65726f2061646460008201527f7265737300000000000000000000000000000000000000000000000000000000602082015250565b6000612aac602483611aae565b9150612ab782612a50565b604082019050919050565b60006020820190508181036000830152612adb81612a9f565b9050919050565b6000612aed82611b5e565b9150612af883611b5e565b925082821015612b0b57612b0a6124be565b5b828203905092915050565b7f4552433732313a207472616e7366657220746f206e6f6e20455243373231526560008201527f63656976657220696d706c656d656e7465720000000000000000000000000000602082015250565b6000612b72603283611aae565b9150612b7d82612b16565b604082019050919050565b60006020820190508181036000830152612ba181612b65565b9050919050565b7f4e487b7100000000000000000000000000000000000000000000000000000000600052601260045260246000fd5b6000612be282611b5e565b9150612bed83611b5e565b925082612bfd57612bfc612ba8565b5b828204905092915050565b6000612c1382611b5e565b9150612c1e83611b5e565b925082612c2e57612c2d612ba8565b5b828206905092915050565b600081519050919050565b600082825260208201905092915050565b6000612c6082612c39565b612c6a8185612c44565b9350612c7a818560208601611abf565b612c8381611af2565b840191505092915050565b6000608082019050612ca36000830187611bf3565b612cb06020830186611bf3565b612cbd6040830185611fc3565b8181036060830152612ccf8184612c55565b905095945050505050565b600081519050612ce981611a14565b92915050565b600060208284031215612d0557612d046119de565b5b6000612d1384828501612cda565b9150509291505056fea26469706673582212203e4e713dc667a45734b90523fdcc47eae31c4425c6e94a348b9bb0c73c83286764736f6c634300080a0033",
  "immutableReferences": {},
  "source": "//SPDX-License-Identifier:MIT\n\npragma solidity ^0.8.4;\n \nimport \"@openzeppelin/contracts/token/ERC721/ERC721.sol\";\nimport \"@openzeppelin/contracts/utils/Counters.sol\";\n\n contract Token is ERC721{\n     using Counters for Counters.Counter;\n     using Strings for uint256;\n     Counters.Counter public tokenIds;\n\n     mapping(uint256 =>string) _tokenURIs;\n     string private _baseURIs;\n\n     \n     constructor(string memory _name, string memory _symbol)   ERC721(_name, _symbol){\n     }\n     \n     event NFTminted(address owner, uint256 id);\n    \n    \n     //mint the collectibles\n     function mintNft(address reciever, string memory _tokenURI ) external {\n        uint256 id = tokenIds.current();\n        _mint(reciever,id);\n        _setTokenURI(id,_tokenURI);\n        tokenIds.increment();\n       emit  NFTminted(reciever,id);\n         \n     }\n     \n    //set the URI of collectibles\n     function _setTokenURI(uint256 id,string memory _tokenURI)internal {\n         require(_exists(id),\"URI of nonexistent token\");\n         _tokenURIs[id] = _tokenURI;\n     }\n\n     //set baseURI of collectibles\n    function _setbaseURI(string memory baseURIs) external {\n        _baseURIs = baseURIs;\n    }\n\n\n    function tokenURI(uint256 id) public view virtual override returns(string memory){\n        require(_exists(id),\"URI query for nonexistent token\");\n        string memory _tokenURI = _tokenURIs[id];\n        string memory base = _baseURI();\n        //return token URI if baseURI is not present\n        if(bytes(base).length==0){\n            return(_tokenURI);\n        }\n        //concatenate both base and token URI if both are present\n        if(bytes(_tokenURI).length>0){\n            return string(abi.encodePacked(base,_tokenURI));\n        }\n    \n        //concatenate baseURI with tokenId if tokenURI isnot present\n        return string (abi.encodePacked(base,id.toString()));\n        \n    }\n\n\n     //display the tokens belonging to the particular owner\n     function tokensofOwner(address _owner) external view  returns(uint256[] memory){\n         uint256 _total = tokenIds.current();\n         uint256 numTokens = balanceOf(_owner);\n         uint256[] memory owner_token  = new uint256[](numTokens);\n         uint256 resultindex =0;\n        for(uint256 i = 0; i<_total; i++){\n            if(ownerOf(i) == _owner)\n            {\n                owner_token[resultindex]=i;\n                resultindex ++;\n            }\n        }\n        return owner_token; \n     }\n     \n }",
  "sourcePath": "/home/khushi/nft-et/contracts/Token.sol",
  "compiler": {
    "name": "solc",
    "version": "0.8.10+commit.fc410830.Emscripten.clang"
  },
  "schemaVersion": "3.4.3",
  "updatedAt": "2021-11-19T13:52:50.300Z",
  "networkType": "ethereum",
  "devdoc": {
    "kind": "dev",
    "methods": {
      "approve(address,uint256)": {
        "details": "See {IERC721-approve}."
      },
      "balanceOf(address)": {
        "details": "See {IERC721-balanceOf}."
      },
      "getApproved(uint256)": {
        "details": "See {IERC721-getApproved}."
      },
      "isApprovedForAll(address,address)": {
        "details": "See {IERC721-isApprovedForAll}."
      },
      "name()": {
        "details": "See {IERC721Metadata-name}."
      },
      "ownerOf(uint256)": {
        "details": "See {IERC721-ownerOf}."
      },
      "safeTransferFrom(address,address,uint256)": {
        "details": "See {IERC721-safeTransferFrom}."
      },
      "safeTransferFrom(address,address,uint256,bytes)": {
        "details": "See {IERC721-safeTransferFrom}."
      },
      "setApprovalForAll(address,bool)": {
        "details": "See {IERC721-setApprovalForAll}."
      },
      "supportsInterface(bytes4)": {
        "details": "See {IERC165-supportsInterface}."
      },
      "symbol()": {
        "details": "See {IERC721Metadata-symbol}."
      },
      "transferFrom(address,address,uint256)": {
        "details": "See {IERC721-transferFrom}."
      }
    },
    "version": 1
  },
  "userdoc": {
    "kind": "user",
    "methods": {},
    "version": 1
  }
}